:020000040800F2
:1050000000A0012009590008595900085959000801
:105010005959000859590008595900080000000062
:1050200000000000000000000000000059590008C6
:105030005959000800000000595900085959000842
:105040005959000859590008595900085959000878
:105050005959000859590008595900085959000868
:105060005959000859590008595900085959000858
:105070005959000859590008595900085959000848
:1050800059590008595900085959000800000000F2
:105090000000000000000000000000005959000856
:1050A0005959000859590008595900085959000818
:1050B0005959000859590008595900085959000808
:1050C00059590008595900085959000859590008F8
:1050D00059590008595900085959000800000000A2
:1050E0005959000859590008595900080000000092
:1050F00000000000000000000000000059590008F6
:105100000000000059590008595900085959000871
:10511000000000000000000000000000000000008F
:105120005959000859590008595900085959000897
:1051300059590008000000000000000000000000B5
:1051400000000000000000000000000059590008A5
:105150005959000859590008595900085959000867
:1051600059590008595900080000000000000000CB
:10517000000000000000000000000000000000002F
:10518000000000000000000000000000000000001F
:085190005959000859590008A3
:1051980010B5054C237833B9044B13B10448AFF369
:1051A80000800123237010BD008001200000000052
:1051B800A459000808B5034B1BB103490348AFF3D2
:1051C800008008BD0000000004800120A4590008E8
:1051D80080B483B000AF78600B46FB70FB78012B7E
:1051E80041D17B68454A934206D1454B1B6B444AE3
:1051F80043F0010313637AE07B68424A934206D185
:105208003F4B1B6B3E4A43F0020313636FE07B681E
:105218003D4A934206D13A4B1B6B394A43F004038B
:10522800136364E07B68394A934206D1344B1B6BA5
:10523800334A43F00803136359E07B68344A9342C6
:1052480006D12F4B1B6B2E4A43F0100313634EE01D
:105258007B68304A93424AD1294B1B6B284A43F05A
:105268008003136343E0FB78002B40D17B68234A1B
:10527800934206D1224B1B6B214A23F0010313638F
:1052880035E07B681F4A934206D11D4B1B6B1C4AB5
:1052980023F0020313632AE07B681B4A934206D17A
:1052A800174B1B6B164A23F0040313631FE07B683C
:1052B800164A934206D1124B1B6B114A23F008037E
:1052C800136314E07B68124A934206D10C4B1B6BA4
:1052D8000B4A23F01003136309E07B680D4A9342DD
:1052E80005D1074B1B6B064A23F08003136300BFED
:1052F8000C37BD465DF8047B704700BF00000240D4
:10530800003802400004024000080240000C02403D
:1053180000100240001C024080B487B000AF7860E3
:1053280000237B617B685B79032B22D87B685B79E0
:105338001A467B681B795B0002FA03F37B617B6882
:105348001B681A687B681B795B00032101FA03F369
:10535800DB4319467B681B680A401A607B681B6838
:1053680019687B681B687A690A431A6000237B61A5
:10537800A1E07B685B79042B17D19F4BDB687A68C7
:105388001279114601228A4011469B4A0B43D36089
:10539800994B9B687A681279114601228A40D24358
:1053A8001146954A0B40936035E07B685B79052B85
:1053B80017D1914BDB687A681279114601228A402D
:1053C800D24311468C4A0B40D3608B4B9B687A685A
:1053D8001279114601228A401146874A0B4393608D
:1053E80019E07B685B79062B15D1834BDB687A68FB
:1053F8001279114601228A4011467F4A0B43D36035
:105408007D4B9B687A681279114601228A401146C1
:10541800794A0B4393607B681B799B08FB747B6814
:105428001B7903F00303BB747B681B68734A9342C0
:1054380024D07B681B68724A93421DD07B681B6826
:10544800704A934216D07B681B686F4A93420FD00C
:105458007B681B686D4A934208D07B681B686C4A5E
:10546800934201D105230AE0002308E0042306E063
:10547800032304E0022302E0012300E000237B74FD
:10548800644B5B6C634A43F4804353647A7CBB7C13
:105498009B0002FA03F1604AFB7C023342F82310B6
:1054A800554B1B687A681279114601228A401146C9
:1054B800514A0B4313607B689B791A467B681B79BA
:1054C8005B0002FA03F37B617B681B689A687B6860
:1054D8001B795B00032101FA03F3DB4319467B6860
:1054E8001B680A409A607B681B6899687B681B6820
:1054F8007A690A439A6000237B617B68DB791A46E4
:105508007B681B795B0002FA03F37B617B681B688D
:10551800DA687B681B795B00032101FA03F3DB433C
:1055280019467B681B680A40DA607B681B68D96883
:105538007B681B687A690A43DA6000237B617B68B1
:105548001B7A1A467B681B7902FA03F37B617B6836
:105558001B685A687B681B79194601238B40DB431B
:1055680019467B681B680A405A607B681B68596843
:105578007B681B687A690A435A6000237B617B68F1
:105588005B79022B31D17B681B7903F007033B74ED
:105598007B681B79DB08FB737B681B68FA7B083226
:1055A80053F822103B7C9B000F2202FA03F3DB43E3
:1055B80018467B681B68FA7B0140083243F82210C2
:1055C8007B681B68FA7B083253F822107B685B7A89
:1055D8001A463B7C9B0002FA03F318467B681B685B
:1055E800FA7B0143083243F8221000BF1C37BD463E
:1055F8005DF8047B704700BF003C0140000002409A
:105608000004024000080240000C02400010024062
:10561800001C0240003802400038014080B483B0CA
:1056280000AF78600B46FB701346BB70BB78012B4C
:1056380009D17B685B69FA78012101FA02F21A4301
:105648007B685A6109E07B685B69FA78012101FA95
:1056580002F2D2431A407B685A6100BF0C37BD463C
:105668005DF8047B704780B483B000AF78600B4668
:105678007B807A887B685A6100BF0C37BD465DF82D
:10568800047B704780B483B000AF78600B46FB7032
:105698007B68B3F1804F06D1164B1B6C154A43F05B
:1056A800010313641FE07B68134A934206D1114B30
:1056B8001B6C104A43F00203136414E07B680F4A22
:1056C800934206D10B4B1B6C0A4A43F00403136444
:1056D80009E07B680A4A934205D1064B1B6C054AD0
:1056E80043F00803136400BF0C37BD465DF8047B24
:1056F800704700BF00380240000400400008004026
:10570800000C004080B483B000AF786039603B681B
:105718005A1E7B689A6200BF0C37BD465DF8047B51
:10572800704780B483B000AF786039607B681B68CD
:1057380023F001027B681A603B685A1E7B68DA62B4
:105748007B681B6923F001027B681A617B681B6810
:1057580043F001027B681A6000BF7B681B6903F095
:105768000103002BF9D07B681B6823F001027B68DA
:105778001A6000BF0C37BD465DF8047B704780B5E2
:1057880082B000AF7860396004E04FF47A717868CD
:10579800FFF7C7FF3B685A1E3A60002BF5D100BFE0
:1057A80000BF0837BD4680BD80B500AF4C4B4D4AA1
:1057B8001A604B4B01225A71494B0C221A71484B03
:1057C80002229A71464B00221A72454B0022DA7166
:1057D800454B444A1A60444B01225A71424B0D22F0
:1057E8001A71414B02229A713F4B00221A723E4BAA
:1057F8000022DA713D4B3B4A1A603C4B01225A7138
:105808003A4B0F221A71394B02229A71374B0022F8
:105818001A72364B0022DA71354B324A1A60344B11
:1058280001225A71324B0E221A71314B02229A719F
:105838002F4B00221A722E4B0022DA7101212D48BB
:10584800FFF7C6FC01212C48FFF7C2FC01212548BF
:10585800FFF7BEFC01214FF08040FFF713FF2048FF
:10586800FFF75AFD2048FFF757FD2048FFF754FD82
:105878001F48FFF751FD10214FF08040FFF742FF0E
:105888004FF4FA714FF08040FFF779FF0021154877
:10589800FFF7E9FE194B1B78002B0DD0174B1B782F
:1058A800012B07D0154B1B78022B01D10E2304E0E6
:1058B8000F2302E00D2300E00C23012219460948BA
:1058C800FFF7ACFE0D4B1B780133DAB20B4B1A70A5
:1058D8000A4B1B7803F00303DAB2084B1A70CFE7C0
:1058E80020800120000C02402C80012038800120FB
:1058F8004480012000000240000402401C80012076
:105908000D48AFF300800D480D490E4A002302E010
:10591800D458C4500433C4188C42F9D30A4A0B4CE7
:10592800002301E013600432A242FBD300F012F816
:10593800FFF73AFFFEE7000000A0012000800120E9
:1059480000800120C45900080080012050800120F7
:10595800FEE7000070B50D4D0D4C641BA410002629
:10596800A64209D10B4D0C4C00F018F8641BA4108A
:105978000026A64205D170BD55F8043B984701366C
:10598800EEE755F8043B98470136F2E7BC590008A2
:10599800BC590008BC590008C0590008F8B500BF38
:1059A800F8BC08BC9E467047F8B500BFF8BC08BCF8
:0459B8009E46704750
:0459BC00BD510008D1
:0459C00099510008F1
:04000005080059098D
:00000001FF
