:020000040800F2
:10A0000000C001208DAE0008DDAE0008DDAE000806
:10A01000DDAE0008DDAE0008DDAE00080000000087
:10A02000000000000000000000000000DDAE00089D
:10A03000DDAE000800000000DDAE0008DDAE000867
:10A04000DDAE0008DDAE0008DDAE0008DDAE0008C4
:10A05000DDAE0008DDAE0008DDAE0008DDAE0008B4
:10A06000DDAE0008DDAE0008DDAE0008DDAE0008A4
:10A07000DDAE0008DDAE0008DDAE0008DDAE000894
:10A08000DDAE0008DDAE0008DDAE00080000000017
:10A09000000000000000000000000000DDAE00082D
:10A0A000DDAE0008DDAE0008DDAE0008DDAE000864
:10A0B000DDAE0008DDAE0008DDAE0008DDAE000854
:10A0C000DDAE0008DDAE0008DDAE0008DDAE000844
:10A0D000DDAE0008DDAE0008DDAE000800000000C7
:10A0E000DDAE0008DDAE0008DDAE000800000000B7
:10A0F000000000000000000000000000DDAE0008CD
:10A1000000000000DDAE0008DDAE0008DDAE000896
:10A11000000000000000000000000000000000003F
:10A12000DDAE0008DDAE0008DDAE0008DDAE0008E3
:10A13000DDAE00080000000000000000000000008C
:10A14000000000000000000000000000DDAE00087C
:10A15000DDAE0008DDAE0008DDAE0008DDAE0008B3
:10A16000DDAE0008DDAE00080000000000000000C9
:10A1700000000000000000000000000000000000DF
:10A1800000000000000000000000000000000000CF
:08A19000DDAE0008DDAE0008A1
:10A1980010B5054C237833B9044B13B10448AFF319
:10A1A80000800123237010BD18A0012000000000CA
:10A1B80028AF000808B5034B1BB103490348AFF3A8
:10A1C800008008BD000000001CA0012028AF000886
:10A1D80080B483B000AF78600B46FB70FB78012B2E
:10A1E80041D17B68454A934206D1454B1B6B444A93
:10A1F80043F0010313637AE07B68424A934206D135
:10A208003F4B1B6B3E4A43F0020313636FE07B68CE
:10A218003D4A934206D13A4B1B6B394A43F004033B
:10A22800136364E07B68394A934206D1344B1B6B55
:10A23800334A43F00803136359E07B68344A934276
:10A2480006D12F4B1B6B2E4A43F0100313634EE0CD
:10A258007B68304A93424AD1294B1B6B284A43F00A
:10A268008003136343E0FB78002B40D17B68234ACB
:10A27800934206D1224B1B6B214A23F0010313633F
:10A2880035E07B681F4A934206D11D4B1B6B1C4A65
:10A2980023F0020313632AE07B681B4A934206D12A
:10A2A800174B1B6B164A23F0040313631FE07B68EC
:10A2B800164A934206D1124B1B6B114A23F008032E
:10A2C800136314E07B68124A934206D10C4B1B6B54
:10A2D8000B4A23F01003136309E07B680D4A93428D
:10A2E80005D1074B1B6B064A23F08003136300BF9D
:10A2F8000C37BD465DF8047B704700BF0000024084
:10A30800003802400004024000080240000C0240ED
:10A3180000100240001C024080B487B000AF786093
:10A3280000237B617B685B79032B22D87B685B7990
:10A338001A467B681B795B0002FA03F37B617B6832
:10A348001B681A687B681B795B00032101FA03F319
:10A35800DB4319467B681B680A401A607B681B68E8
:10A3680019687B681B687A690A431A6000237B6155
:10A37800A1E07B685B79042B17D19F4BDB687A6877
:10A388001279114601228A4011469B4A0B43D36039
:10A39800994B9B687A681279114601228A40D24308
:10A3A8001146954A0B40936035E07B685B79052B35
:10A3B80017D1914BDB687A681279114601228A40DD
:10A3C800D24311468C4A0B40D3608B4B9B687A680A
:10A3D8001279114601228A401146874A0B4393603D
:10A3E80019E07B685B79062B15D1834BDB687A68AB
:10A3F8001279114601228A4011467F4A0B43D360E5
:10A408007D4B9B687A681279114601228A40114671
:10A41800794A0B4393607B681B799B08FB747B68C4
:10A428001B7903F00303BB747B681B68734A934270
:10A4380024D07B681B68724A93421DD07B681B68D6
:10A44800704A934216D07B681B686F4A93420FD0BC
:10A458007B681B686D4A934208D07B681B686C4A0E
:10A46800934201D105230AE0002308E0042306E013
:10A47800032304E0022302E0012300E000237B74AD
:10A48800644B5B6C634A43F4804353647A7CBB7CC3
:10A498009B0002FA03F1604AFB7C023342F8231066
:10A4A800554B1B687A681279114601228A40114679
:10A4B800514A0B4313607B689B791A467B681B796A
:10A4C8005B0002FA03F37B617B681B689A687B6810
:10A4D8001B795B00032101FA03F3DB4319467B6810
:10A4E8001B680A409A607B681B6899687B681B68D0
:10A4F8007A690A439A6000237B617B68DB791A4694
:10A508007B681B795B0002FA03F37B617B681B683D
:10A51800DA687B681B795B00032101FA03F3DB43EC
:10A5280019467B681B680A40DA607B681B68D96833
:10A538007B681B687A690A43DA6000237B617B6861
:10A548001B7A1A467B681B7902FA03F37B617B68E6
:10A558001B685A687B681B79194601238B40DB43CB
:10A5680019467B681B680A405A607B681B685968F3
:10A578007B681B687A690A435A6000237B617B68A1
:10A588005B79022B31D17B681B7903F007033B749D
:10A598007B681B79DB08FB737B681B68FA7B0832D6
:10A5A80053F822103B7C9B000F2202FA03F3DB4393
:10A5B80018467B681B68FA7B0140083243F8221072
:10A5C8007B681B68FA7B083253F822107B685B7A39
:10A5D8001A463B7C9B0002FA03F318467B681B680B
:10A5E800FA7B0143083243F8221000BF1C37BD46EE
:10A5F8005DF8047B704700BF003C0140000002404A
:10A608000004024000080240000C02400010024012
:10A61800001C0240003802400038014080B400AFFE
:10A6280000231846BD465DF8047B704780B584B0AA
:10A6380000AF284B9B689B08DBB203F00303FB7158
:10A64800FB79002B02D1244BBB600BE0FB79012B7B
:10A6580002D1224BBB6005E0FB79022B02D1FFF748
:10A66800DDFFB8601B4B9B681B09DBB203F00F03CF
:10A67800BB71BB79072B02D80123FB8108E0BB79AA
:10A68800072B05D9BB79083B154A32F81330FB81F3
:10A69800104B9B689B0ADBB203F007037B717B7945
:10A6A800032B02D80123BB8107E07B79032B04D954
:10A6B8007B79043B0B4AD35CBB81FB89BA68B2FB4C
:10A6C800F3F2BB89B2FBF3F3BB60BB6818461037E3
:10A6D800BD4680BD003802400024F40000127A0014
:10A6E80000A0012014A0012080B584B000AF284B41
:10A6F8009B689B08DBB203F00303FB71FB79002B1B
:10A7080002D1244BBB600BE0FB79012B02D1224B19
:10A71800BB6005E0FB79022B02D1FFF77FFFB86031
:10A728001B4B9B681B09DBB203F00F03BB71BB79A2
:10A73800072B02D80123FB8108E0BB79072B05D939
:10A74800BB79083B154A32F81330FB81104B9B68E4
:10A758005B0BDBB203F007037B717B79032B02D819
:10A768000123BB8107E07B79032B04D97B79043B68
:10A778000B4AD35CBB81FB89BA68B2FBF3F2BB8995
:10A78800B2FBF3F3BB60BB6818461037BD4680BD0B
:10A79800003802400024F40000127A0000A00120D2
:10A7A80014A0012080B483B000AF78600B46FB7022
:10A7B8007B68B3F1804F06D1164B1B6C154A43F0EA
:10A7C800010313641FE07B68134A934206D1114BBF
:10A7D8001B6C104A43F00203136414E07B680F4AB1
:10A7E800934206D10B4B1B6C0A4A43F004031364D3
:10A7F80009E07B680A4A934205D1064B1B6C054A5F
:10A8080043F00803136400BF0C37BD465DF8047BB2
:10A81800704700BF003802400004004000080040B4
:10A82800000C004080B483B000AF786039603B68AA
:10A838005A1E7B689A6200BF0C37BD465DF8047BE0
:10A84800704780B483B000AF786039607B681B685C
:10A8580023F001027B681A603B685A1E7B68DA6243
:10A868007B681B6923F001027B681A617B681B689F
:10A8780043F001027B681A6000BF7B681B6903F024
:10A888000103002BF9D07B681B6823F001027B6869
:10A898001A6000BF0C37BD465DF8047B704780B571
:10A8A80082B000AF7860396004E04FF47A7178685C
:10A8B800FFF7C7FF3B685A1E3A60002BF5D100BF6F
:10A8C80000BF0837BD4680BD80B483B000AF786054
:10A8D8000B46FB70FB78012B20D17B68244A9342FE
:10A8E80006D1244B5B6C234A43F01003536438E0D1
:10A8F8007B68214A934206D11E4B1B6C1D4A43F4C8
:10A90800003313642DE07B681C4A934229D1194B0C
:10A918005B6C184A43F02003536422E0FB78002B59
:10A928001FD17B68124A934206D1124B5B6C114AC5
:10A9380023F01003536414E07B680F4A934206D156
:10A948000C4B1B6C0B4A23F40033136409E07B683F
:10A958000A4A934205D1074B5B6C064A23F0200351
:10A96800536400BF0C37BD465DF8047B704700BFD9
:10A97800001001400038024000440040001401402B
:10A9880080B485B000AF78600023FB607B681B68EB
:10A99800514A934206D1514B5B6C504A43F0100325
:10A9A800536416E07B681B684D4A934206D14B4BB3
:10A9B8001B6C4A4A43F4003313640AE07B681B6843
:10A9C800484A934205D1454B5B6C444A43F0200307
:10A9D80053647B681B79012B04D1FB6843F00403A3
:10A9E800FB6010E07B681B79002B04D1FB6843F007
:10A9F8000803FB6007E07B681B79022B03D1FB6827
:10AA080043F00C03FB607B685B7B1B031A46FB6807
:10AA18001343FB607B689B7B012B08D1FB6843F4E5
:10AA28008063FB60FB6823F40073FB600BE07B68CA
:10AA38009B7B022B07D1FB6843F48063FB60FB68B8
:10AA480043F40073FB607B681B68FA68DA600023D4
:10AA5800FB607B681B7B1B031A46FB681343FB6088
:10AA68007B681B68FA681A610023FB607B68DB7BE4
:10AA7800012B04D1FB6843F40073FB6010E07B6892
:10AA8800DB7B022B04D1FB6843F48073FB6007E097
:10AA98007B68DB7B032B03D1FB6843F44073FB60CB
:10AAA8007B681B68FA685A617B6800225A617B6878
:10AAB80000221A617B6800225A767B6800221A7687
:10AAC8007B6800221A627B680022DA6100BF1437B3
:10AAD800BD465DF8047B7047001001400038024015
:10AAE800004400400014014080B588B000AF786091
:10AAF80000233B617B681B68384A934204D07B681B
:10AB08001B68374A934203D1FFF7EEFDF86102E074
:10AB1800FFF78CFDF8617B681B68DB6803F4004372
:10AB2800002B0CD0FA6913469B0013449A001A4470
:10AB38007B689B685B00B2FBF3F3BB610BE0FA69CF
:10AB480013469B0013449A001A447B689B689B0039
:10AB5800B2FBF3F3BB61BB69224AA2FB03235B0987
:10AB6800FB60FB681B013A6913433B61FB68642285
:10AB780002FB03F3BA69D31A7B617B681B68DB6845
:10AB880003F40043002B0AD07B69DB003233154AFB
:10AB9800A2FB03235B0903F007037B6109E07B69E0
:10ABA8001B0132330F4AA2FB03235B0903F00F0397
:10ABB8007B613A697B6913433B617B681B683A692F
:10ABC8009A607B681B68DA687B681B6842F40052ED
:10ABD800DA6000BF2037BD4680BD00BF00100140CD
:10ABE800001401401F85EB5180B485B000AF786038
:10ABF8000B46FB70FB78092B65D801A252F823F0AD
:10AC0800C1AC0008B1AC0008A1AC000891AC0008C8
:10AC180081AC000871AC000861AC000851AC0008B8
:10AC280041AC000831AC00087B681B685B0ADBB2EA
:10AC380003F00103FB7347E07B681B681B0ADBB268
:10AC480003F00103FB733FE07B681B68DB09DBB2A1
:10AC580003F00103FB7337E07B681B689B09DBB2D9
:10AC680003F00103FB732FE07B681B685B09DBB211
:10AC780003F00103FB7327E07B681B681B09DBB249
:10AC880003F00103FB731FE07B681B68DB08DBB282
:10AC980003F00103FB7317E07B681B689B08DBB2BA
:10ACA80003F00103FB730FE07B681B685B08DBB2F2
:10ACB80003F00103FB7307E07B681B68DBB203F05A
:10ACC8000103FB7300E000BFFB7B18461437BD4649
:10ACD8005DF8047B704700BF80B588B000AFF860AE
:10ACE800B9607A600023FB612CE000BFFB681B6839
:10ACF80007211846FFF778FF0346002BF6D0FB68BC
:10AD08005B7B012B0DD1BB687B61FB695B007A69BA
:10AD180013441B881A46FB681B68C2F308025A6072
:10AD28000DE0BB68BB61FB681B685A68B969FB69C1
:10AD38000B441B781946FB681B680A435A60FB6979
:10AD48000133FB61FA697B689A42CED300BFFB6886
:10AD58001B6806211846FFF747FF0346002BF6D06D
:10AD680000BF00BF2037BD4680BD000080B500AFE2
:10AD78003B4B3C4A1A603A4B4FF416529A60384B98
:10AD88000022DA73364B02221A71354B00221A73ED
:10AD9800334B00225A73324B00229A73324B334A98
:10ADA8001A60314B02225A712F4B02229A712E4B94
:10ADB80002221A712C4B0122DA712B4B07225A728C
:10ADC8002B4B2A4A1A602A4B02225A71284B00221E
:10ADD8001A72274B02229A71254B03221A71244BAF
:10ADE8000122DA71224B07225A7201211F48FFF70C
:10ADF800EFF901211B48FFF767FD01211D48FFF707
:10AE0800D1FC1948FFF788FA1948FFF785FA10218D
:10AE18001848FFF707FD1248FFF7B2FD1048FFF783
:10AE280063FE4FF496711348FFF739FD1222124959
:10AE38000B48FFF751FF4FF496710E48FFF72FFDAF
:10AE480012220E490648FFF747FF4FF4967109484A
:10AE5800FFF725FD12220A490148FFF73DFFE0E709
:10AE68004CA001200044004034A001200000024012
:10AE780040A001200004004040AF000854AF000883
:10AE880068AF00080D48AFF300800D480D490E4A21
:10AE9800002302E0D458C4500433C4188C42F9D3B8
:10AEA8000A4A0B4C002301E013600432A242FBD390
:10AEB80000F012F8FFF75AFFFEE7000000C001207B
:10AEC80000A0012018A0012084AF000818A00120CC
:10AED80070A00120FEE7000070B50D4D0D4C641BFD
:10AEE800A4100026A64209D10B4D0C4C00F018F80E
:10AEF800641BA4100026A64205D170BD55F8043B7A
:10AF080098470136EEE755F8043B98470136F2E7D3
:10AF18007CAF00087CAF00087CAF000880AF000859
:10AF2800F8B500BFF8BC08BC9E467047F8B500BF2E
:08AF3800F8BC08BC9E467047FE
:10AF400048656C6C6F5F776F726C64315F21212193
:10AF50000A0D000048656C6C6F5F776F726C64322D
:10AF60005F2121210A0D000048656C6C6F5F776FCF
:0CAF7000726C64335F2121210A0D000087
:04AF7C00BDA100086B
:04AF800099A100088B
:10AF840002000400080010002000400080000001BE
:08AF9400000200000204081095
:040000050800AE8DB4
:00000001FF
